:020000020000FC
:0200000056C0E8
:02000C001AC018
:0200240023C0F7
:02002C0029C0E9
:1000400029C088278093680000936E0083B1887070
:1000500019F00E948E00189583B1807119F00E94EA
:100060007700189583B1807201F018958091020194
:1000700083958C3010F013B988278093020118956E
:10008000809101018395863010F003B98827809311
:1000900001011895809100018395823128F0009329
:1000A0006800882780936E008093000118950E9455
:1000B0005A00FFCF03E004B988E385B901E012E0FC
:1000C00028E030E140E278940093680080936B0070
:1000D00085E085BD8DE08093810081E0809389007B
:1000E00080E08093880087E08093B100089580913C
:1000F0006F00812780936F00803019F485B18E7F67
:1001000085B98827089580917000802780937000BA
:10011000803019F485B18D7F85B908958827809343
:100120006F008093700080930001809301018093A1
:0A013000020185B18C7F85B90895A6
:00000001FF
